:100000000C9434000C943E000C943E000C943E0082
:100010000C943E000C943E000C943E000C943E0068
:100020000C943E000C943E000C943E000C943E0058
:100030000C943E000C943E000C943E000C943E0048
:100040000C943E000C943E000C943E000C943E0038
:100050000C943E000C943E000C943E000C943E0028
:100060000C943E000C943E0011241FBECFEFD8E04C
:10007000DEBFCDBF0E9460010C94A0010C94000073
:100080000E9443010E943B010E9447010E944B01D4
:100090000C944F01EF92FF920F931F93CF93DF9336
:1000A0000E94450181E090E00E945301C0E0D0E051
:1000B00000E010E0E12C80E2F82E0E943D010E9459
:1000C0003F01811549F0C7010C2E02C09595879517
:1000D0000A94E2F7082B192B0E943B012196CE309F
:1000E000D10559F781E090E00E9453010E9443013D
:1000F000C801DF91CF911F910F91FF90EF9008956C
:10010000CF93C82F80FF0BC00E944701C1FF0AC0D8
:100110000E944B01C2FF09C0CF910C944F010E9475
:100120004901F4CF0E944D01F5CFCF910C945101BC
:100130002F923F924F925F926F927F928F929F92F7
:10014000AF92BF92CF92DF92EF92FF920F931F93E5
:10015000CF93DF9300D000D0CDB7DEB70B831C83E5
:100160007C015B016A01890180969A83898380E022
:100170000E9480000E944A00F701819391937F01C1
:100180009C0184E0369527958A95E1F7EB81FC8107
:1001900080819181820F931F9183808381E00E94EF
:1001A00080000E944A00F501819391935F019C01B8
:1001B00094E0369527959A95E1F7EB81FC81828151
:1001C0009381820F931F9383828382E00E94800039
:1001D0000E944A00F601819391936F019C0144E0D3
:1001E000369527954A95E1F7EB81FC8184819581CD
:1001F000820F931F9583848383E00E9480000E9476
:100200004A00F801819391938F019C0154E0369547
:1002100027955A95E1F7EB81FC8186819781820FC2
:10022000931F9783868381E090E00E945301898128
:100230009A81E816F90609F09ACF0F900F900F9067
:100240000F90DF91CF911F910F91FF90EF90DF9072
:10025000CF90BF90AF909F908F907F906F905F9066
:100260004F903F902F900895259A2498229A209A93
:10027000219A229A08952D9A08952D9808958827F5
:100280002C99839508952A9A08952A980895289A72
:10029000089528980895299A0895299808950C9406
:1002A00043010C9445019C0180E090E08217930784
:1002B0000CF0089545E04A95F1F700000196F6CF5D
:1002C000CDB7DEB7C858D1090FB6F894DEBF0FBE60
:1002D000CDBF5E0181E6A80EB11C80E2F501982F2A
:1002E00011929A95E9F76E01E1E4CE0ED11CF60168
:1002F000982F11929A95E9F77E01E1E2EE0EF11C3A
:10030000F701982F11929A95E9F78E010F5F1F4F11
:10031000F80111928A95E9F74E01F1E88F0E911CD0
:1003200088E0F40111928A95E9F70E9440003801B3
:1003300084019301A701B601C5010E949800F8CF7E
:04034000F894FFCF5F
:00000001FF
